:10000000A4C9BEC9BDC9BCC9BBC9BAC9BDCEB8C9DE
:10001000B7C9B6C9B5C9B4C9B3C9B2C9B1C9B0C9FC
:10002000AFC9E11210127F107E0FE50E840E730D22
:10003000EA0CD90B400B6F0AD60905094408AB0737
:1000400012078906F0055F04CE0235029C01030108
:1000500052006428009301280093012800290028F9
:1000600000460128002900280046012800930128A5
:1000700000290028004601280093012800290028B3
:100080000046012800930128009301280029002838
:100090000046012800290028004601280093012875
:1000A000002900280046012800C0202800930128CC
:1000B0000093012800290028004601280029002873
:1000C0000046012800930128002900280046012845
:1000D00000930128002900280046012800930128E8
:1000E0000093012800290028004601280029002843
:1000F0000046012800930128002900280046012815
:1001000000000068B00259012A002E002A002E00CB
:100110002A002E002A0086002A0086002A002E00CF
:100120002A002E002A002E002A002E002A002E006F
:100130002A002E002A0086002A0086002A002E00AF
:100140002A002E002A002E002A002E002A002E004F
:100150002A002E002A002E002A002E002A002E003F
:100160002A0086002A0086002A0086002A008600CF
:100170002A0086002A0086002A0086002A008600BF
:100180002A002E002A002E002A00690DB202AC00BF
:100190002A00691CB202AC002A0000006867023322
:1001A00001260027002600270026007A00260027C7
:1001B0000026007A002600270026002700260027B8
:1001C000002600330126007A002600270026007A48
:1001D000002600270026007A002600270026002798
:1001E00000260027002600040768023301260027A6
:1001F000002600270026007A002600270026007A25
:1002000000260027002600270026002700260033AE
:100210000126007A002600270026007A0026002703
:100220000026007A00260027002600270026002747
:10023000002600000068B40262012F0029002F0090
:1002400029002F007C002F0029002F0029002F00FB
:1002500029002F0029002F0029002F007C002F00EB
:100260007C002F0029002F007C002F007C002F0035
:100270007C002F007C002F007C002F0029002F0025
:1002800029002F0029002F007C002F0029002F00BB
:1002900029002F0029002F0029002F007C002F00AB
:1002A0007C002F007C002F0029002F007C002F00F5
:1002B0007C002F007C002F007C002F00510CB60228
:1002C000AF002F00261DB602AF003E00000068FB05
:1002D000007C0020001F0020001F0020005E002086
:1002E000001F0020005E0020001F0020001F0020D3
:1002F000001F0020005E0020005E0020001F002084
:10030000001F0020001F0020005E0020005E002073
:10031000001F0020001F0020001F0020001F0020E1
:10032000001F0020001F0020001F0020001F0020D1
:10033000001F0020001F0020001F0020005E002082
:10034000001F0020001F0020001F0020001F0020B1
:10035000005E0020001F0020001F0020005E002023
:10036000001F0020001F0020001F0020001F002091
:10037000005E0020001F0020005E0020001F002003
:10038000001F0020001F0020001F0020001F002071
:10039000001F002000D30DFC007C0020001F002067
:1003A000001F0020005E0020001F0020005E0020D3
:1003B000001F0020001F0020001F0020005E002002
:1003C000005E0020001F0020001F0020001F0020F2
:1003D000005E0020005E0020001F0020001F0020A3
:1003E000001F0020001F0020001F0020001F002011
:1003F000001F0020001F0020001F0020001F002001
:10040000001F0020005E0020001F0020001F0020B1
:10041000001F0020001F0020005E0020001F0020A1
:10042000001F0020005E0020001F0020001F002091
:10043000001F0020001F0020005E0020001F002081
:10044000005E0020001F0020001F0020001F002071
:10045000001F0020001F0020001F00200000006877
:100460008E0249012800290028007B00280029006D
:1004700028007B002800290028007B002800290094
:1004800028007B0028007B002800290028007B0032
:100490002800290028007B002800290028007B0074
:1004A00028002900280029002800290028007B00B6
:1004B00028007B0028007B00280029002800290054
:1004C0002800290028007B0028007B002800290044
:1004D000280029002800290028007B0028007B0034
:1004E00028007B002800B5078E024A012800290059
:1004F00028007B002800290028007B002800290014
:1005000028007B002800290028007B0028007B00B1
:100510002800290028007B002800290028007B00F3
:100520002800290028007B00280029002800290035
:100530002800290028007B0028007B0028007B0081
:1005400028002900280029002800290028007B0015
:1005500028007B0028002900280029002800290005
:1005600028007B0028007B0028007B002800B507BE
:100570008E024A012800290028007B00280029005B
:1005800028007B002800290028007B002800290083
:1005900028007B0028007B002800290028007B0021
:1005A0002800290028007B002800290028007B0063
:1005B00028002900280029002800290028007B00A5
:1005C00028007B0028007B00280029002800290043
:1005D0002800290028007B0028007B002800290033
:1005E000280029002800290028007B00280000009E
:1005F00064D00266012E002C002E002C002E002C50
:10060000002E008B002E008B002E008B002E002C65
:10061000002E002C002E008B002E008B002E008B55
:10062000002E002C002E002C002E002C002E008B03
:10063000002E008B002E002C002E008B002E002C94
:10064000002E002C002E008B002E002C002E002CE3
:10065000002E002C002E008B002E002C002E008B74
:10066000002E008B002E002C002E008B002E008B05
:10067000002E008B002E00F80CD002B4002E00B12A
:100680001DD002B4002E000000741400900014006D
:1006900091001400910014003D0014003D0014006E
:1006A0003D001400910014003D0014003D001400B2
:1006B000910014003D0014003D0014003D001400A2
:1006C0003D0014003D0014003D001400C10614005C
:1006D0009100140091001400910014003D001400DA
:1006E0003D0014003D001400910014003D00140072
:1006F0003D001400910014003D0014003D00140062
:100700003D0014003D0014003D0014003D001400A5
:10071000000068B4025C012B002B002B0082002B30
:10072000002B002B002B002B002B002B002B002B71
:100730000082002B002B002B0082002B002B002BB3
:100740000082002B0082002B0082002B0082002BF5
:10075000002B002B0082002B0082002B002B002B93
:10076000002B002B002B002B002B002B002B002B31
:10077000002B002B002B002B002B002B0082002BCA
:100780000082002B0082002B0082002B0082002BB5
:100790000082002B0082002B00DE0BB602AC002B87
:1007A00000EC1CB602AC002B00000068B4025C0137
:1007B0002B002B002B002B002B002B002B002B00E1
:1007C0002B002B002B0082002B0082002B002B0023
:1007D0002B0082002B0082002B0082002B00820065
:1007E0002B0082002B002B002B002B002B00820003
:1007F0002B0082002B0082002B002B002B002B00F3
:100800002B002B002B002B002B002B002B002B0090
:100810002B002B002B002B002B0082002B008200D2
:100820002B0082002B0082002B0082002B00820014
:100830002B00DE0BB602AC002B00EC1CB602AC00A9
:100840002B00000068B00258012A0029002A002964
:10085000002A007F002A007F002A007F002A00294A
:10086000002A0029002A0029002A007F002A0029E6
:10087000002A0029002A0029002A0029002A007FD6
:10088000002A007F002A0029002A0029002A0029C6
:10089000002A007F002A007F002A007F002A00290A
:1008A000002A007F002A007F002A007F002A007FA4
:1008B000002A0029002A007F002A0029002A002996
:1008C000002A007F002A0029002A0029002A002986
:1008D000002A007F002A0029002A007F002A007FCA
:1008E000002A0029002A007F002A007F002A007FBA
:1008F000002A00EC06B10257012A00291CB1025758
:10090000012A00000068000101014000C30040000E
:1009100041004000C3004000C300400041004000CF
:10092000C300400041004000C3004000C30040003D
:1009300041004000410040004100400041004000B3
:10094000C300400041004000C3004000410040009F
:1009500041004000C3004000410040004100400011
:10096000C3004000C3004000C3004000DA0900019A
:1009700002014000C300400041004000C3004000AD
:10098000C300400041004000C3004000410040005F
:10099000C3004000C300400041004000410040004F
:1009A0004100400041004000C300400041004000C1
:1009B000C30040004100400041004000C30040002F
:1009C0004100400041004000C3004000C30040001F
:1009D000C3004000000068A90253012B0029002B2E
:1009E0000029002B0029002B0029002B0083002B5D
:1009F0000029002B0083002B0029002B0083002BF3
:100A00000083002B0083002B0083002B0029002B88
:100A10000083002B0029002B0083002B0083002B78
:100A20000083002B0083002B0029002B0083002B68
:100A30000029002B0029002B0029002B0029002B66
:100A40000029002B0029002B0083002B0029002BFC
:100A50000083002B0083002B0083002B00230CAAB3
:100A600002AC002B00181CAA02AC002A000000688F
:100A70008802410128007900280079002800290017
:100A80002800290028002900280029002800290022
:100A90002800290028007900280079002800790022
:100AA00028002900280079002800290028002900B2
:100AB000280029002800DF06280079002800790096
:100AC00028002900280029002800290028002900E2
:100AD0002800290028002900280079002800790032
:100AE0002800790028002900280079002800290022
:100AF00028002900280029002800DF0628007900A6
:100B00002800790028002900280029002800290051
:100B10002800290028002900280029002800790041
:100B20002800790028007900280029002800790091
:100B3000280029002800290028002900280000009A
:100B400068B4025A012A0082002A0082002A008228
:100B5000002A002A002A002A002A002A002A002A45
:100B6000002A0082002A002A002A0082002A002A85
:100B7000002A002A002A002A002A0082002A002ACD
:100B8000002A002A002A002A002A002A002A002A15
:100B9000002A002A002A002A002A0082002A008255
:100BA000002A0082002A0082002A0082002A008295
:100BB000002A0082002A0082002A002A002A002A35
:100BC000002A002A002A00DE0BB602AC002A00D957
:100BD0001CB602AC002A00000068B4025A012C00C6
:100BE00082002C002C002C002C002C002C002C004F
:100BF00082002C0082002C0082002C002C002C0093
:100C00002C002C0082002C0082002C0082002C0082
:100C10002C002C002C002C002C002C0082002C001E
:100C20002C002C0082002C002C002C0082002C00B8
:100C30002C002C002C002C0082002C002C002C00FE
:100C400082002C002C002C0082002C002C002C0098
:100C500082002C0082002C002C002C0082002C0032
:100C60000D0CB60258012C0082002C002C002C0028
:100C70002C002C002C002C0082002C0082002C0068
:100C800082002C002C002C002C002C0082002C0058
:100C900082002C0082002C002C002C002C002C0048
:100CA0002C002C0082002C002C002C0082002C0038
:100CB0002C002C0082002C002C002C002C002C007E
:100CC00082002C002C002C0082002C002C002C0018
:100CD00082002C002C002C0082002C0082002C00B2
:100CE0002C002C0082002C00000066280025002823
:100CF00000400128008F012800250028004001281D
:100D00000025002800400128008F01280025002828
:100D100000400128008F01280025002800400128FC
:100D2000008F0128008F012800250028001B25289E
:100D30000025002800400128008F012800250028F8
:100D4000004001280025002800400128008F0128CC
:100D50000025002800400128008F012800250028D8
:100D600000400128008F0128008F0128002500285D
:100D7000000000685D0167012800840028008400ED
:100D80002800840028002F0028002F0028002F00B2
:100D900028002F0028002F0028008400280084004D
:100DA0002800840028002F0028002F0028002F0092
:100DB00028002F0028002F0028002F002800840082
:100DC00028002F0028002F0028002F0028002F00C7
:100DD00028002F0028002F002800840028002F0062
:100DE0002800840028008400280084002800840053
:100DF00028008400280084002800BD0D5D016701E3
:100E000028008400280084002800840028002F0087
:100E100028002F0028002F0028002F0028002F0076
:100E200028008400280084002800840028002F0067
:100E300028002F0028002F0028002F0028002F0056
:100E400028002F002800840028002F0028002F00F1
:100E500028002F0028002F0028002F0028002F0036
:100E60002800840028002F00280084002800840027
:100E700028008400280084002800840028008400C2
:100E8000280000007040004000800040004000400A
:100E90000040004000400040004000400040004052
:100EA00000400040004000B800400040008000408A
:100EB0000040000E1940004000800040004000400B
:100EC0000040004000400040004000400040004022
:100ED0000040004000400080004000400080004092
:100EE000004000000068B4025C012B002B002B00C6
:100EF0002B002B002B002B002B002B002B002B009A
:100F00002B002B0082002B002B002B0082002B00DB
:100F100082002B0082002B0082002B0082002B001D
:100F200082002B002B002B0082002B002B002B00BB
:100F300082002B002B002B002B002B0082002B00AB
:100F40002B002B002B002B002B002B0082002B00F2
:100F50002B002B0082002B0082002B002B002B008B
:100F600082002B0082002B0082002B00DE0BB602D9
:100F7000AC002B00EC1CB602AC002B000000681586
:100F8000008E0016003D0016003D0016003D0016C4
:100F9000003D0016003D0016008E0016008E001663
:100FA000003D0016008E0016003D0016003D0016A4
:100FB000003D0016008E0016003D001600AC0D1618
:100FC000008E0016003D0016003D0016003D001684
:100FD000003D0016008E0016003D0016003D001674
:100FE000008E0016003D0016008E0016008E0016C2
:100FF000008E0016003D0016008E001600AC0D1687
:10100000008E0016003D0016003D0016003D001643
:10101000003D0016003D0016008E0016008E0016E2
:10102000003D0016008E0016003D0016003D001623
:10103000003D0016008E0016003D001600AC0D1697
:10104000008E0016003D0016003D0016003D001603
:10105000003D0016008E0016003D0016003D0016F3
:10106000008E0016003D0016008E0016008E001641
:10107000008E0016003D0016008E00160000006C69
:1010800003018100200021002000620020002100D7
:10109000200021002000210020002100200021004C
:1010A000200021002000210020002100200021003C
:1010B00020002100200021002000620020002100EB
:1010C000200021002000210020002100200021001C
:1010D000200021002000210020002100200021000C
:1010E00020006200200021002000210020002100BB
:1010F00020002100200021002000210020002100EC
:101100002000210020006200200021002000620059
:101110002000620020006200200062002000210008
:101120002000210020006200200021002000620039
:1011300020006200200062002000620020002100E8
:10114000200062002000CA15030182002000210057
:10115000200062002000210020002100200021004A
:10116000200021002000210020002100200021007B
:10117000200021002000210020002100200021006B
:10118000200062002000210020002100200021001A
:10119000200021002000210020002100200021004B
:1011A00020002100200021002000620020002100FA
:1011B000200021002000210020002100200021002B
:1011C00020002100200021002000210020006200DA
:1011D0002000210020006200200062002000620048
:1011E0002000620020002100200021002000620079
:1011F0002000210020006200200062002000620028
:101200002000620020002100200062002000000079
:1012100046C901C8013A00E4003A00E4003A00E49B
:10122000003A00E4003A0071003A0071003A00E42C
:10123000003A0071003A00E4003A0071003A00E41C
:10124000003A0071003A0071003A0071003A0071F2
:10125000003A0071003A00E4003A00E4003A0071FC
:10126000003A00E4003A0071003A00E4003A0071EC
:10127000003A00E4003A009103C901C8013A00E4D1
:10128000003A00E4003A00E4003A00E4003A007159
:10129000003A0071003A00E4003A0071003A00E4BC
:1012A000003A0071003A00E4003A0071003A00711F
:1012B000003A0071003A0071003A0071003A00E40F
:1012C000003A00E4003A0071003A00E4003A00718C
:1012D000003A00E4003A0071003A00E4003A0000ED
:1012E0000068B8002D005C002D002E002D005C0071
:1012F0002D002E002D005C002D002E002D002E0054
:101300002D005C002D002E002D002E002D002E0043
:101310002D002E001408B8002D005C002D002E00BA
:101320002D005C002D002E002D005C002D002E00F5
:101330002D002E002D005C002D002E002D002E0013
:101340002D002E002D002E00000011241FBECFE521
:10135000D2E0DEBFCDBF10E0A0E6B0E0EEEAFFE1F4
:1013600002C005900D92A03AB107D9F720E0A0EA9B
:10137000B0E001C01D92A73EB207E1F7DBD115C670
:101380003FC6CF92DF92EF92FF920F931F931616F4
:1013900017065CF541E050E0082E02C0440F551FCF
:1013A0000A94E2F7F42EA42FA09540E050E000E06C
:1013B00010E09801B0E29BB39F299BBBB7B9369A66
:1013C0003699FECF9BB39A239BBB87B9369A369941
:1013D000FECFE4B1F5B10E0F1F1F211D311D4F5F70
:1013E0005F4F6417750739F703C000E010E09801FC
:1013F0006B01770FEE08FF08C901B801A70196013C
:101400007CD5C9011F910F91FF90EF90DF90CF9095
:10141000089561E070E084E090E0B3DF2091CA00BD
:101420003091CB00821B930B9093CD008093CC0026
:1014300061E070E085E090E0A4DF2091C60030918B
:10144000C700821B930B9093C9008093C80061E092
:1014500070E086E090E095DF2091C2003091C300FB
:10146000821B930B9093C5008093C40061E070E0F1
:1014700087E090E086DF2091CE003091CF00821B84
:10148000930B9093D1008093D0008091CC009091E9
:10149000CD008536910534F081E08093BF008093C4
:1014A000C10002C01092BF008091C8009091C90095
:1014B0008536910534F081E08093BE008093C100B1
:1014C00002C01092BE008091C4009091C500853684
:1014D000910534F081E08093BD008093C10002C08B
:1014E0001092BD008091D0009091D1008536910579
:1014F0003CF021E02093BC008436910524F008C024
:101500001092BC0005C081E08093BB001092BC002B
:1015100081E09091C100913009F080E091E020914C
:10152000CC003091CD00243631050CF090E09823AA
:1015300081E02091C8003091C900243631050CF0BB
:1015400080E0892381F081E02091C4003091C500C2
:10155000243631050CF080E0882329F081E0809367
:10156000C0001092C1000895EF92FF920F931F9355
:10157000CF93DF931092E60080916A00882309F4EC
:10158000C5C0E0E0EE24E394FE2C08E610E0C0E2E3
:10159000DEE4F0E0EE0FFF1FEE5DFF4F85919491CA
:1015A0009C01FC01849190E09BBD8ABD1092DD00FE
:1015B0008091DD0090E0880F991F880F991FFC0132
:1015C0003196E20FF31F459154915093E5004093FB
:1015D000E400FC013396E20FF31F85919491909300
:1015E000E3008093E200F092D4005093D300409344
:1015F000D2008091D2009091D300892BD1F7109224
:10160000D400D8984091E2005091E3005093D30069
:101610004093D2008091D2009091D300892BD1F7D2
:101620008091DD008F5F8093DD00452B09F0C0CFF6
:10163000D898EFDE8091BE00813011F4DA9A01C0B3
:10164000DA988091BD00813011F4D99A01C0D998FF
:101650008091BF00813019F4F092A20005C0809102
:10166000A200813009F05CC0D99ADA9ADB9A209105
:10167000C1008E2D9091C000913009F080E0882348
:10168000E9F08E2D213009F080E08823B9F08091B7
:10169000A200813099F41092C000D998DA98DB98B2
:1016A0008091C000811105C0B4DE8091C000882304
:1016B000D9F31092C0001092A20028C08E2D9091F4
:1016C000A200911180E0882359F08E2D211180E035
:1016D000882331F0D998DA98DB981092C00016C0B0
:1016E0001BBD0ABDD093D300C093D2008091D2001D
:1016F0009091D300892BD1F7E091E600EF5FE09362
:10170000E60080916A00E81708F443CFD998DA9888
:10171000DB981092A20088E690E09BBD8ABD03C0D2
:101720002091C100CBCFDF91CF911F910F91FF90FE
:10173000EF9008958AB38F608ABBBA9A1FBC1EBC13
:101740001DBC1CBC88E690E09BBD8ABD8EB5886040
:101750008EBD8EB581608EBD619A80B7806880BF76
:1017600080B7836080BF80E886BF789486B186604A
:1017700086B9379A62E370E087E090E002DE9093EA
:10178000CF008093CE0062E370E084E090E0F9DD6A
:101790009093CB008093CA0062E370E085E090E014
:1017A000F0DD9093C7008093C60062E370E086E0AE
:1017B00090E0E7DD9093C3008093C20080E090E06A
:1017C000DAD380936400209164009091640081E0FA
:1017D000243008F480E0811105C081E0911180E09F
:1017E000882319F081E08093640011E00F2EF2E36A
:1017F000AF2EF02D0F2EFAE0BF2EF02D07E0C1E046
:10180000D0E00F2EF4E6CF2EF02D0F2EF4E1DF2ED8
:10181000F02D0F2EF8ECEF2EF02D0F2EF8E2FF2E0C
:10182000F02D4091D9005091DA006091DB00709169
:10183000DC008091B0009091B100A091B200B09115
:10184000B30084179507A607B70708F0B1C18091C8
:10185000D9009091DA00A091DB00B091DC002091DA
:101860006500820F911DA11DB11D8093B000909362
:10187000B100A093B200B093B300CBDD8091BD0066
:10188000813019F5D99A80916400823081F08330DB
:10189000D1F08130F9F400936700D093B500C09384
:1018A000B400F092AF0083B7836083BF13C010937E
:1018B000A100E0926000F092AF0083B7836083BF25
:1018C000E092610007C050DE05C080916400823064
:1018D00009F0D9988091BE00813019F5DA9A80918B
:1018E0006400823081F08330D1F08130F9F40093CC
:1018F0006700D093B500C093B400D092AF0083B717
:10190000836083BF13C01093A100C0926000D09287
:10191000AF0083B7836083BFC092610007C024DE3D
:1019200005C080916400823009F0DA988091BF0090
:10193000813019F5DB9A80916400823081F0833028
:10194000D1F08130F9F400936700D093B500C093D3
:10195000B400B092AF0083B7836083BF13C010930D
:10196000A100A0926000B092AF0083B7836083BFF4
:10197000A092610007C0F8DD05C08091640082304C
:1019800009F0DB988091C000813059F41092C000BA
:101990001092B5001092B40013BE1092A1001092E4
:1019A000A0008091BC00813009F0EAC08091640001
:1019B000823031F08330E1F08130D9F4D99A19C006
:1019C000DA9ADB98D9988091A3009091A400A09115
:1019D000A500B091A60088539F4FAF4FBF4F809393
:1019E000A3009093A400A093A500B093A60001C00B
:1019F000DB9A8091DE009091DF00A091E000B09131
:101A0000E100892B8A2B8B2B81F48091D900909156
:101A1000DA00A091DB00B091DC008093DE009093AF
:101A2000DF00A093E000B093E1004091D900509115
:101A3000DA006091DB007091DC008091DE00909113
:101A4000DF00A091E000B091E100481B590B6A0B48
:101A50007B0B8091620090916300092E000CAA0B11
:101A6000BB0B84179507A607B70708F0A1C08091A4
:101A700064008F5F8093640080916400843010F074
:101A8000109364006091640080E090E07CD2D9986B
:101A9000DA98DB9880916400823051F1833009F448
:101AA0004BC0813009F084C0D99A4091D90050913F
:101AB000DA006091DB007091DC004C505E4F6F4F9C
:101AC0007F4F4093A8005093A9006093AA007093A1
:101AD000AB008091D9009091DA00A091DB00B09129
:101AE000DC0084179507A607B70798F3D99860C05C
:101AF000DA9A4091D9005091DA006091DB00709140
:101B0000DC004C505E4F6F4F7F4F4093A8005093C6
:101B1000A9006093AA007093AB008091D9009091C6
:101B2000DA00A091DB00B091DC0084179507A607CE
:101B3000B70798F3DA983CC0DB9A4091D9005091EE
:101B4000DA006091DB007091DC004C505E4F6F4F0B
:101B50007F4F4093A8005093A9006093AA00709310
:101B6000AB008091D9009091DA00A091DB00B09198
:101B7000DC0084179507A607B70798F3DB9818C011
:101B80008091DE009091DF00A091E000B091E10033
:101B9000181619061A061B065CF41092DE00109245
:101BA000DF001092E0001092E100D998DA98DB98FB
:101BB0008091B4009091B500019709F047C0409121
:101BC000D9005091DA006091DB007091DC008091C7
:101BD000B7009091B800A091B900B091BA008417F5
:101BE0009507A607B707C0F58091D9009091DA0054
:101BF000A091DB00B091DC0020916700820F911D65
:101C0000A11DB11D8093B7009093B800A093B900B7
:101C1000B093BA0080916600813051F48091B60093
:101C20008F5F8093B6008A3260F01092660009C020
:101C30008091B60081508093B600811102C010934C
:101C400066008091B6008093D70006C01092D7003E
:101C5000109366001092B6008091A100813009F0C7
:101C600042C04091D9005091DA006091DB00709140
:101C7000DC008091B7009091B800A091B900B091BC
:101C8000BA0084179507A607B70768F58091D900B1
:101C90009091DA00A091DB00B091DC00209160000F
:101CA000820F911DA11DB11D8093B7009093B800C4
:101CB000A093B900B093BA008091A0008F5F8433E5
:101CC00018F48093A00002C01092A000E091A00040
:101CD000F0E0E559FF4F8081813019F410936900DD
:101CE00002C01092690080916400823009F099CDA1
:101CF0004091D9005091DA006091DB007091DC00D6
:101D00008091A3009091A400A091A500B091A6009D
:101D100084179507A607B70708F083CD8091D900EF
:101D20009091DA00A091DB00B091DC00209161007D
:101D3000820F911DA11DB11D8093A3009093A4005B
:101D4000A093A500B093A6008091A7008F5F809319
:101D5000A700853018F01093A7000CC0823061F006
:101D600020F4813009F05DCD05C0833041F084302E
:101D700049F057CDD99A55CDDA9AD99852CDDB9AF8
:101D8000DA984FCDDB984DCD1F920F920FB60F9280
:101D900011242F938F939F93AF93BF9380916400EF
:101DA0008330B1F48091D400813009F489BB8091F3
:101DB000D2009091D300892B09F477C08091D20092
:101DC0009091D30001979093D3008093D2006DC07F
:101DD000809168008130A9F48091D5008F5F809355
:101DE000D5008091D500803110F01092680080916C
:101DF0006900813021F49BB389278BBB14C0D8982C
:101E000012C08091D50081508093D5008091D5007B
:101E1000811108C081E0809368008091D6008F5FB7
:101E20008093D600D8988091A100811115C090911F
:101E3000D6008091D700891778F4109269008091BC
:101E4000D6008B3248F01092D6008091D7008823BC
:101E500019F081E0809369008091AE008F5F8093DC
:101E6000AE009091AE008091AF008917F0F410920F
:101E7000AE008091AC009091AD0001969093AD00C2
:101E80008093AC00811522E092073CF01092AD00E7
:101E90001092AC0080E090E007C08F3F910521F0E8
:101EA0001CF0819586BF01C086BF8091D8008F5FEE
:101EB0008093D8008091D8008B34A9F48091D90008
:101EC0009091DA00A091DB00B091DC000196A11D99
:101ED000B11D8093D9009093DA00A093DB00B093FA
:101EE000DC001092D800BF91AF919F918F912F91FC
:101EF0000F900FBE0F901F901895052E97FB16F4AC
:101F000000940FD057FD05D014D007FC02D046F442
:101F100008C050954095309521953F4F4F4F5F4FEA
:101F2000089590958095709561957F4F8F4F9F4F45
:101F30000895A1E21A2EAA1BBB1BFD010DC0AA1F0A
:101F4000BB1FEE1FFF1FA217B307E407F50720F022
:101F5000A21BB30BE40BF50B661F771F881F991F9D
:101F60001A9469F760957095809590959B01AC01E6
:101F7000BD01CF010895E199FECF9FBB8EBBE09AD2
:101F800099278DB30895262FE199FECF9FBB8EBB75
:101F9000E09A01970DB2021639F01CBA2DBB0FB6AC
:0E1FA000F894E29AE19A0FBE0895F894FFCFEC
:101FAE006464FA0001320107010118010101000108
:101FBE000101000100000001010100010101000109
:101FCE0001010000000101010001010100010101F8
:101FDE0000000001010100010000000000000000EF
:00000001FF
